:100000000C9446000C9458000C9458000C94580022
:100010000C9458000C9458000C9458000C946101F6
:100020000C94AA010C9458000C9458000C9458009D
:100030000C940C010C9458000C9458000C9458002B
:100040000C94D6000C9458000C9458000C94580052
:100050000C9458000C9458000C9458000C945800C0
:100060000C9458000C9458000C9458000C945800B0
:100070000C9458000C9458000C9458000C945800A0
:100080000C9458000C9458000C94580011241FBE76
:10009000CFEFD0E1DEBFCDBF21E0A0E0B1E001C0F5
:1000A0001D92A431B207E1F70E9432020C9436028D
:1000B0000C940000833010F080E00895E82FF0E009
:1000C000ED5FFE4F908181E0890F282F2F702A303D
:1000D00011F487E0890F861711F08083EDCF10822D
:1000E00081E0089580910201E82FE69580FB2227A8
:1000F00022F980FD36C081E0E11101C080E080FB83
:10010000882787F993B1907C93B9F0E0ED5FFE4FBB
:10011000E081F0E002C0F595E7952A95E2F7EF70EF
:10012000F0E0E75FFE4F9081892B82BB93B1809115
:10013000020121E001C0220F8A95EAF780910701B0
:100140008223892B83B9809102018F5F8093020102
:10015000863031F4809106018093070110920201EC
:10016000089580E0CFCF64E282E00C945A0060E60C
:1001700081E00E945A0081110C94B300089560E65A
:1001800080E00E945A0081110C94B700089580917C
:100190000101833021F464E282E00C945A0060E6AD
:1001A000823011F481E0F9CF80E0F7CF1F920F92F7
:1001B0000FB60F9211240BB60F922F933F934F93CC
:1001C0005F936F937F938F939F93AF93BF93EF93BF
:1001D000FF93809113018F5F8A37A8F480931301F6
:1001E000FF91EF91BF91AF919F918F917F916F910F
:1001F0005F914F913F912F910F900BBE0F900FBECB
:100200000F901F9018951092130180910101811198
:10021000E7CF0E94BF00E4CF1F920F920FB60F925C
:1002200011240BB60F922F933F934F935F936F93CD
:100230007F938F939F93AF93BF93EF93FF930E940E
:100240007200809101018115D9F0909108019F5FA2
:10025000909308019639A1F40E9B25C08150990B0B
:10026000880F991F23E001C0220F8A95EAF7809139
:100270000601822780930601109200011092080166
:10028000FF91EF91BF91AF919F918F917F916F916E
:100290005F914F913F912F910F900BBE0F900FBE2A
:1002A0000F901F90189580910001823031F40E94C8
:1002B000C7008FEF80930601E1CF8F5F809300012D
:1002C000F8CF1F920F920FB60F9211240BB60F9218
:1002D0002F933F934F935F936F937F938F939F934E
:1002E000AF93BF93EF93FF9380910101811539F094
:1002F0000E94C7008FEF8093060110920801FF91C2
:10030000EF91BF91AF919F918F917F916F915F918D
:100310004F913F912F910F900BBE0F900FBE0F90FA
:100320001F9018958FEF81BB82BB9FE392B983B971
:10033000089587B78C7F87BF80B7886080BF12BE63
:1003400083B7856083BF80B78770E9F787B781601F
:1003500087BF08951F920F920FB60F9211240BB60C
:100360000F922F933F934F935F936F937F938F934E
:100370009F93AF93BF93EF93FF93809101018115FA
:10038000F9F08150809301019FEF90930601109244
:100390000801811102C00E949901FF91EF91BF9164
:1003A000AF919F918F917F916F915F914F913F910D
:1003B0002F910F900BBE0F900FBE0F901F901895AE
:1003C00083E0E0CF89B7806C89BF8AB7806F8ABF2E
:1003D00008958EB58B608EBD1DBC1CBC88E690E078
:1003E0009BBD8ABD87B7806187BF089510920801C1
:1003F0008FEF809307018093060110920301109202
:100400000401109205011092020183E08093010122
:10041000109200018FE38093090186E080930A0126
:100420008BE580930B018FE480930C0186E680932B
:100430000D018DE680930E018DE780930F0187E01B
:10044000809310018FE7809311018FE68093120152
:1004500080E181BD0E9492010E9499010E94E20107
:100460000C94E9010E94F6017894FFCFF894FFCF35
:00000001FF
