:100000000C942A000C943F000C943F000C943F0089
:100010000C943F000C943F000C943F000C943F0064
:100020000C943F000C943F000C943F000C943F0054
:100030000C943F000C943F000C943F000C943F0044
:100040000C943F000C943F000C943F000C943F0034
:100050000C943F0011241FBECFE5D8E0DEBFCDBF1A
:1000600010E0A0E6B0E0E6E3F9E002C005900D92F2
:10007000A639B107D9F70E9415010C9499040C9484
:100080000000D09AD8988FEB93E00197F1F700C069
:100090000000D098D8989AEB9A95F1F700C089B3F0
:1000A000E3E3F3E03197F1F700C0000081700895B9
:1000B00020E030E090E0D09AD89845E04A95F1F7FA
:1000C0000000AC01022E02C0559547950A94E2F754
:1000D00040FDD09840EA4A95F1F7D09845E04A951E
:1000E000F1F700002F5F3F4F2830310521F70895C9
:1000F00020E030E080E041E0D09AD89895E09A95F1
:10010000F1F70000D0989AE19A95F1F700C0C89BEA
:1001100007C0642F022E01C0660F0A94EAF7862BEF
:1001200095E89A95F1F700002F5F3F4F2830310591
:1001300019F70895A99A82E08A95F1F700C0A99865
:1001400085E88A95F1F700000895CF93C82F6115CF
:10015000C9F0A89A85B38F709C2F907F892B85BB9F
:100160000E949A0085B3C295C07F8F70C82BC5BB13
:100170000E949A008FE99FE00197F1F700C000000C
:10018000CF910895A898E6CF8FEF84BB8FE39CE9C9
:100190000197F1F700C0000085B38F70806385BBC5
:1001A0000E949A008FE097E20197F1F700C00000EB
:1001B0000E949A008BE291E00197F1F700C00000E5
:1001C0000E949A008BE291E00197F1F700C00000D5
:1001D00085B38F70806285BB0E949A008FE99FE093
:1001E0000197F1F700C0000060E088E20E94A500DE
:1001F00060E08CE00E94A50060E081E00E94A50024
:100200008FE99FE00197F1F700C000000895CF93B8
:10021000DF93EC018881811103C0DF91CF910895B4
:10022000219661E00E94A500F5CFCDB7DEB76097BB
:100230000FB6F894DEBF0FBECDBF0E94C40080E6AB
:1002400090E00E94070160E080EC0E94A5008EE62D
:1002500090E00E9407012FEF89E698E1215080404D
:100260009040E1F700C000007E012FEFE21AF20A91
:1002700060E081E00E94A5000E94410081115CC005
:100280008CEC0E94580084E40E9458008FE79FE4A1
:1002900022E1815090402040E1F700C000000E9420
:1002A00041008CEC0E9458008EEB0E9458000E9486
:1002B0007800082F0E947800182F89E790E00E94AC
:1002C000070161E017FD31C08BE20E94A500802F7D
:1002D0008F702AE0829FC001112424E095958795B4
:1002E0002A95E1F79F938F9334E0159507953A95FA
:1002F000E1F71F920F9380E890E09F938F93FF9216
:10030000EF920E94A101C7010E9407010FB6F89465
:10031000DEBF0FBECDBF9FEF24E38CE091502040A5
:100320008040E1F700C00000A3CF8DE20E94A5004D
:10033000119501951109CBCF88E890E00E94070143
:10034000EACFAEE0B0E0E7EAF1E00C94720486E0B8
:100350008C832B893C8929833A838FEF9FE78D8398
:100360009E83AE01495E5F4F6D897E89CE01019605
:100370000E94C501EF81F8852B893C89E20FF31FAC
:1003800010822E96E2E00C948E04ABE0B0E0EBEC31
:10039000F1E00C9465046C017B018A01FC0116827A
:1003A0001782838181FFDFC13AE0532EF60123815A
:1003B000F70123FD859123FF81917F01811509F4C8
:1003C00037C1853239F423FD959123FF91917F0147
:1003D000953229F4B60190E00E94CC03E7CF30E0DB
:1003E000912C612C712CF0E27F1640F59B32D9F0F4
:1003F00058F49032D1F09332F1F09E3291F576FCC0
:1004000017C1689476F806C09D3291F09033C1F41C
:10041000689470F8F70123FD959123FF91917F0176
:100420009111E1CF28C0689471F8689472F8F2CF06
:10043000689473F8EFCF689474F8ECCF77FC1BC026
:1004400080ED890F8A30C8F676FE05C0959C800D38
:100450001124982EDFCF659C800D1124682E7F2AF1
:10046000D9CF9C3619F4689477F8D4CF9C3409F42A
:1004700045C0983679F2892F8F7D8554833008F4F2
:100480003FC0933609F461C0933709F46BC09335CC
:1004900009F477C0943619F0993609F0A4C0F80130
:1004A00077FE9AC061917191819191918F01272D71
:1004B0002F76822E97FF04C00E945A04689487F812
:1004C0002AE030E05E014FEFA41AB40AA5010E94B1
:1004D000FC03782E7A1886FECFC0882D8E7F791483
:1004E00008F0C9C084FE1DC182FC11C12EEE82221B
:1004F000B92C882D867809F4CBC00EC131E08ACFA3
:10050000311501F1085F1F4F8FE3898321E0822EAF
:10051000912C5E012FEFA21AB20AE89477F873FCCF
:1005200003C086149104F0F18114910409F041C0D4
:10053000611409F43BCFB60180E290E00E94CC0345
:100540006A94F6CF0C5F1F4FDFCFF801808189835B
:100550000E5F1F4F91E0892E912C5E01FFEFAF1AC5
:10056000BF0ADBCFF801A190B1908F01692D70E037
:1005700076FC02C06FEF7FEFC5010E94C1034C0102
:10058000CCCFF801A190B1908F01692D70E076FC7D
:1005900002C06FEF7FEFC5010E94B6034C01689463
:1005A00077F8BDCFB60180E290E00E94CC036A9458
:1005B000B8CFF50177FC859177FE81915F01B60197
:1005C00090E00E94CC0381E0611001C080E0681AD5
:1005D000F1E08F1A9108A8CF61917191872F880F50
:1005E000880B982F63CF9537C9F4872CE89484F84B
:1005F0002AE030E0F80187FE39C061917191819164
:1006000091918F015E01FFEFAF1ABF0AA5010E9411
:10061000FC03782E7A18E89487F85DCF872D897FC0
:10062000882E903799F058F49835A9F09F36D9F074
:10063000F601868197812B96EFE00C948104983720
:10064000B9F774FC05C020E130E0D4CF689484F899
:10065000689482F8F8CF74FE03C0E72DE6608E2E12
:1006600020E132E0C7CF28E030E0C4CF6191719142
:1006700080E090E0C6CF882EB72C84FE3ACFFE01F2
:10068000E70DF11D8081803309F044C049EE8422DA
:1006900083FC0EC080FE51C0972CB61418F4960C43
:1006A0009B18B62C862D8B196B1408F480E0B80EBD
:1006B000B61408F044C06B1884FE43C0B60180E352
:1006C00090E00E94CC0382FE09C088E590E081FCA6
:1006D00002C088E790E0B6010E94CC037914E0F1F3
:1006E0005E018FEFA81AB80A7A9482E0882E912CC6
:1006F0008C0E9D1E870C911CF40182914F01B60156
:1007000090E00E94CC038A149B04B1F711CFB92C5E
:10071000882EB5CF82FC02C0B394BACFB394B39401
:10072000B7CFB92C882EE5CEB60180E290E00E94CA
:10073000CC03A394A614C0F3B5CFAB2CFBCF612C94
:10074000BBCF882D867851F280E281FC8BE287FC5A
:100750008DE2B60190E0C0CFB60180E390E00E9448
:10076000CC039A94BBCF8FEF9FEF65CFFC01059030
:10077000615070400110D8F7809590958E0F9F1FA3
:100780000895FC016150704001900110D8F78095E8
:1007900090958E0F9F1F08950F931F93CF93DF9314
:1007A000182F092FEB018B8181FD09C00FEF1FEF7F
:1007B000812F902FDF91CF911F910F91089582FF8C
:1007C00014C02E813F818C819D81281739073CF40C
:1007D000E881F981CF0101968883998310838E8106
:1007E0009F8101968E839F83E3CFE885F985812FD2
:1007F0000995892BA1F3DACFFA01AA27283051F104
:10080000203181F1E8946F936E7F6E5F7F4F8F4F41
:100810009F4FAF4FB1E03ED0B4E03CD0670F781FA0
:10082000891F9A1FA11D680F791F8A1F911DA11D85
:100830006A0F711D811D911DA11D20D009F46894BE
:100840003F912AE0269F11243019305D3193DEF666
:10085000CF010895462F4770405D4193B3E00FD01C
:10086000C9F7F6CF462F4F70405D4A3318F0495D07
:1008700031FD4052419302D0A9F7EACFB4E0A695EA
:100880009795879577956795BA95C9F7009761050C
:10089000710508959B01AC010A2E06945795479562
:1008A00037952795BA95C9F7620F731F841F951F57
:1008B000A01D089590958095709561957F4F8F4FFD
:1008C0009F4F08952F923F924F925F926F927F9227
:1008D0008F929F92AF92BF92CF92DF92EF92FF9250
:1008E0000F931F93CF93DF93CDB7DEB7CA1BDB0BFC
:1008F0000FB6F894DEBF0FBECDBF09942A883988A1
:1009000048885F846E847D848C849B84AA84B984A7
:10091000C884DF80EE80FD800C811B81AA81B981B3
:10092000CE0FD11D0FB6F894DEBF0FBECDBFED01C7
:060930000895F894FFCFCA
:10093600312D576972652053797374656D004C6F5C
:100946006164696E672E2E2E0054656D703A200024
:1009560025642E256420430053656E736F7220450F
:0609660072726F722100A5
:00000001FF
