:100000000C942A000C943F000C943F000C943F0089
:100010000C943F000C943F000C943F000C943F0064
:100020000C943F000C943F000C943F000C943F0054
:100030000C943F000C943F000C943F000C943F0044
:100040000C943F000C943F000C943F000C943F0034
:100050000C943F0011241FBECFE5D8E0DEBFCDBF1A
:1000600010E0A0E6B0E0ECE9F8E002C005900D92E7
:10007000AC37B107D9F70E94CF000C944C040C9414
:100080000000A99A82E08A95F1F700C0A99885E856
:100090008A95F1F700000895CF93C82F6115C9F034
:1000A000A89A85B38F709C2F907F892B85BB0E9467
:1000B000410085B3C295C07F8F70C82BC5BB0E941D
:1000C00041008FE99FE00197F1F700C00000CF9158
:1000D0000895A898E6CF8FEF84BB8FE39CE9019742
:1000E000F1F700C0000085B38F70806385BB0E946C
:1000F00041008FE097E20197F1F700C000000E94F5
:1001000041008BE291E00197F1F700C000000E94EE
:1001100041008BE291E00197F1F700C0000085B348
:100120008F70806285BB0E9441008FE99FE001973C
:10013000F1F700C0000060E088E20E944C0060E03F
:100140008CE00E944C0060E081E00E944C008FE94E
:100150009FE00197F1F700C000000895CF93DF936F
:10016000EC018881811103C0DF91CF910895219620
:1001700061E00E944C00F5CF611104C0805860E03E
:100180000C944C008054FBCF80E487B987E886B993
:100190000895369A3699FECF84B195B10895CDB7BA
:1001A000DEB763970FB6F894DEBF0FBECDBF0E94D7
:1001B0006B000E94C40060E080E80E944C0080E672
:1001C00090E00E94AE008E010F5F1F4F0E94C90099
:1001D0009C01A4EFB1E00E9423012FEF33E040E047
:1001E00050E00E943201B901CA0124E630E040E04B
:1001F00050E00E9432012B8B698B7A8B60E080EC9F
:100200000E944C002A892F9389898F939B891F9282
:100210009F938BE690E09F938F931F930F930E9481
:100220005401C8010E94AE008FEF91EE24E081508E
:1002300090402040E1F700C000000FB6F894DEBF08
:100240000FBECDBFC3CFA29FB001B39FC001A39F7C
:10025000700D811D1124911DB29F700D811D1124FF
:10026000911D0895A1E21A2EAA1BBB1BFD010DC012
:10027000AA1FBB1FEE1FFF1FA217B307E407F50756
:1002800020F0A21BB30BE40BF50B661F771F881F32
:10029000991F1A9469F760957095809590959B01C8
:1002A000AC01BD01CF010895AEE0B0E0EAE5F1E0B8
:1002B0000C94250486E08C832B893C8929833A831E
:1002C0008FEF9FE78D839E83AE01495E5F4F6D89FF
:1002D0007E89CE0101960E947801EF81F8852B89F5
:1002E0003C89E20FF31F10822E96E2E00C94410449
:1002F000ABE0B0E0EEE7F1E00C9418046C017B0198
:100300008A01FC0116821782838181FFDFC13AE0F6
:10031000532EF6012381F70123FD859123FF81915F
:100320007F01811509F437C1853239F423FD959198
:1003300023FF91917F01953229F4B60190E00E944C
:100340007F03E7CF30E0912C612C712CF0E27F1617
:1003500040F59B32D9F058F49032D1F09332F1F05D
:100360009E3291F576FC17C1689476F806C09D32EE
:1003700091F09033C1F4689470F8F70123FD9591E2
:1003800023FF91917F019111E1CF28C0689471F80A
:10039000689472F8F2CF689473F8EFCF689474F8A9
:1003A000ECCF77FC1BC080ED890F8A30C8F676FE53
:1003B00005C0959C800D1124982EDFCF659C800D83
:1003C0001124682E7F2AD9CF9C3619F4689477F8C7
:1003D000D4CF9C3409F445C0983679F2892F8F7DAB
:1003E0008554833008F43FC0933609F461C09337D5
:1003F00009F46BC0933509F477C0943619F0993637
:1004000009F0A4C0F80177FE9AC0619171918191C1
:1004100091918F01272D2F76822E97FF04C00E9485
:100420000D04689487F82AE030E05E014FEFA41ACB
:10043000B40AA5010E94AF03782E7A1886FECFC0B9
:10044000882D8E7F791408F0C9C084FE1DC182FCFE
:1004500011C12EEE8222B92C882D867809F4CBC0EA
:100460000EC131E08ACF311501F1085F1F4F8FE3D4
:10047000898321E0822E912C5E012FEFA21AB20A0D
:10048000E89477F873FC03C086149104F0F18114AA
:10049000910409F041C0611409F43BCFB60180E238
:1004A00090E00E947F036A94F6CF0C5F1F4FDFCF6E
:1004B000F801808189830E5F1F4F91E0892E912C76
:1004C0005E01FFEFAF1ABF0ADBCFF801A190B19038
:1004D0008F01692D70E076FC02C06FEF7FEFC501E0
:1004E0000E9474034C01CCCFF801A190B1908F0110
:1004F000692D70E076FC02C06FEF7FEFC5010E94AE
:1005000069034C01689477F8BDCFB60180E290E0B2
:100510000E947F036A94B8CFF50177FC859177FE3E
:1005200081915F01B60190E00E947F0381E061103C
:1005300001C080E0681AF1E08F1A9108A8CF61919C
:100540007191872F880F880B982F63CF9537C9F447
:10055000872CE89484F82AE030E0F80187FE39C05F
:1005600061917191819191918F015E01FFEFAF1ABD
:10057000BF0AA5010E94AF03782E7A18E89487F885
:100580005DCF872D897F882E903799F058F4983564
:10059000A9F09F36D9F0F601868197812B96EFE07E
:1005A0000C9434049837B9F774FC05C020E130E0AE
:1005B000D4CF689484F8689482F8F8CF74FE03C0AE
:1005C000E72DE6608E2E20E132E0C7CF28E030E054
:1005D000C4CF6191719180E090E0C6CF882EB72C96
:1005E00084FE3ACFFE01E70DF11D8081803309F0D2
:1005F00044C049EE842283FC0EC080FE51C0972C7B
:10060000B61418F4960C9B18B62C862D8B196B1407
:1006100008F480E0B80EB61408F044C06B1884FEED
:1006200043C0B60180E390E00E947F0382FE09C0D0
:1006300088E590E081FC02C088E790E0B6010E9466
:100640007F037914E0F15E018FEFA81AB80A7A945B
:1006500082E0882E912C8C0E9D1E870C911CF4013B
:1006600082914F01B60190E00E947F038A149B049F
:10067000B1F711CFB92C882EB5CF82FC02C0B3944C
:10068000BACFB394B394B7CFB92C882EE5CEB601C8
:1006900080E290E00E947F03A394A614C0F3B5CF3C
:1006A000AB2CFBCF612CBBCF882D867851F280E23A
:1006B00081FC8BE287FC8DE2B60190E0C0CFB601F1
:1006C00080E390E00E947F039A94BBCF8FEF9FEF6F
:1006D00065CFFC010590615070400110D8F78095FE
:1006E00090958E0F9F1F0895FC01615070400190FE
:1006F0000110D8F7809590958E0F9F1F08950F9346
:100700001F93CF93DF93182F092FEB018B8181FD6E
:1007100009C00FEF1FEF812F902FDF91CF911F9115
:100720000F91089582FF14C02E813F818C819D819D
:10073000281739073CF4E881F981CF0101968883B5
:10074000998310838E819F8101968E839F83E3CF4F
:10075000E885F985812F0995892BA1F3DACFFA0174
:10076000AA27283051F1203181F1E8946F936E7FF0
:100770006E5F7F4F8F4F9F4FAF4FB1E03ED0B4E0E1
:100780003CD0670F781F891F9A1FA11D680F791F22
:100790008A1F911DA11D6A0F711D811D911DA11D33
:1007A00020D009F468943F912AE0269F1124301943
:1007B000305D3193DEF6CF010895462F4770405DDE
:1007C0004193B3E00FD0C9F7F6CF462F4F70405D8D
:1007D0004A3318F0495D31FD4052419302D0A9F7E8
:1007E000EACFB4E0A6959795879577956795BA95E2
:1007F000C9F700976105710508959B01AC010A2EA8
:1008000006945795479537952795BA95C9F7620F7E
:10081000731F841F951FA01D089590958095709556
:1008200061957F4F8F4F9F4F08952F923F924F9228
:100830005F926F927F928F929F92AF92BF92CF9270
:10084000DF92EF92FF920F931F93CF93DF93CDB779
:10085000DEB7CA1BDB0B0FB6F894DEBF0FBECDBFF1
:1008600009942A88398848885F846E847D848C84C2
:100870009B84AA84B984C884DF80EE80FD800C81CB
:100880001B81AA81B981CE0FD11D0FB6F894DEBFAE
:0C0890000FBECDBFED010895F894FFCF1E
:10089C00566F6C746D657465723A0055203D202559
:0C08AC00642E25303264205620202000ED
:00000001FF
