:100000000C9446000C9458000C9458000C94580022
:100010000C9458000C9458000C9458000C94580000
:100020000C9458000C9458000C9458000C945800F0
:100030000C9458000C9458000C9458000C945800E0
:100040000C9458000C9458000C9458000C945800D0
:100050000C9458000C9458000C9458000C945800C0
:100060000C9458000C9458000C9458000C945800B0
:100070000C9458000C9458000C9458000C945800A0
:100080000C9458000C9458000C94580011241FBE76
:10009000CFEFD0E1DEBFCDBF21E0A0E0B1E001C0F5
:1000A0001D92A630B207E1F70E94F5000C94E90119
:1000B0000C9400008091000190910101892B11F4B2
:1000C00081E083B980910001909101018D9711F435
:1000D00089E083B980910001909101018A359105F1
:1000E00011F488E083B98091000190910101873873
:1000F000910511F48AE083B980910001909101018A
:10010000843B910511F482E083B9809100019091C4
:100110000101813E910511F486E083B980910001CF
:10012000909101018E30914011F484E083B9809167
:100130000001909101018B33914011F485E083B966
:1001400080910001909101018836914011F481E085
:1001500083B980910001909101018D9611F485E0A1
:1001600083B98091000190910101863A9F4F11F46B
:1001700084E083B9809100019091010189379F4FFC
:1001800011F486E083B980910001909101018C34D3
:100190009F4F11F482E083B9809100019091010199
:1001A0008F319F4F11F48AE083B9809100019091C3
:1001B0000101823F9E4F11F488E083B980910001D4
:1001C00090910101853C9E4F11F489E083B98091A3
:1001D00000019091010188399E4F11F481E083B9AB
:1001E000089514BA8FEF82B9089581E080930401D5
:1001F00010920501809302011092030110920001F8
:10020000109201010E94F100C9E0D8E092E0E92ECD
:100210009AE0F92E6701CC0CDC185601BA94AB2495
:1002200001E010E0989947C0C3B92FEF83ED90E348
:10023000215080409040E1F700C00000D3B92FEF7B
:1002400083ED90E3215080409040E1F700C0000032
:10025000F3B82FEF83ED90E3215080409040E1F719
:1002600000C00000E3B82FEF83ED90E32150804001
:100270009040E1F700C00000D3B82FEF83ED90E38A
:10028000215080409040E1F700C00000C3B82FEF3C
:1002900083ED90E3215080409040E1F700C00000E2
:1002A000B3B82FEF83ED90E3215080409040E1F709
:1002B00000C00000A3B8999947C0B3B82FEF83EDF1
:1002C00090E3215080409040E1F700C00000C3B8A7
:1002D0002FEF83ED90E3215080409040E1F700C084
:1002E0000000D3B82FEF83ED90E321508040904081
:1002F000E1F700C00000E3B82FEF83ED90E3215059
:1003000080409040E1F700C00000F3B82FEF83ED8C
:1003100090E3215080409040E1F700C00000D3B945
:100320002FEF83ED90E3215080409040E1F700C033
:100330000000C3B92FEF83ED90E32150804090403F
:10034000E1F700C00000A3B89A9919C08091040198
:1003500090910501019799F480910001909101011C
:10036000883621E0920711F480E090E08D9680932A
:1003700000019093010110920401109205019A9BD3
:1003800004C000930401109305019B9919C080914A
:10039000020190910301019799F4809100019091DD
:1003A000010188392EEF920711F480E090E08D97DB
:1003B00080930001909301011092020110920301B9
:1003C0009B9B04C000930201109303010E945A00FA
:0603D00029CFF894FFCFD5
:00000001FF
