:100000000C9446000C9458000C9458000C94580022
:100010000C9458000C9458000C9458000C94580000
:100020000C9458000C9458000C9458000C945800F0
:100030000C9458000C9458000C9458000C945800E0
:100040000C9458000C9458000C9458000C945800D0
:100050000C9458000C9458000C9458000C945800C0
:100060000C9458000C9458000C9458000C945800B0
:100070000C9458000C9458000C9458000C945800A0
:100080000C9458000C9458000C94580011241FBE76
:10009000CFEFD0E1DEBFCDBF21E0A0E0B1E001C0F5
:1000A0001D92A630B207E1F70E94AF000C946101E7
:1000B0000C94000080910001909101018A35910516
:1000C00011F488E083B98091000190910101843B93
:1000D000910511F482E083B98091000190910101B2
:1000E0008E30914011F484E083B9809100019091A9
:1000F00001018836914011F481E083B980910001BB
:1001000090910101892B11F481E083B98091000164
:1001100090910101863A9F4F11F484E083B9809158
:100120000001909101018C349F4F11F482E083B95A
:100130008091000190910101823F9E4F11F488E06F
:1001400083B9809100019091010188399E4F11F48B
:1001500081E083B9089514BA8FEF82B9089581E0E0
:100160008093040110920501809302011092030113
:1001700010920001109201010E94AB00C8E0D2E091
:1001800081E0E82E84E0F82E01E010E0989928C084
:10019000C3B92FEF83ED90E3215080409040E1F709
:1001A00000C00000D3B92FEF83ED90E321508040D1
:1001B0009040E1F700C00000F3B82FEF83ED90E32B
:1001C000215080409040E1F700C00000E3B82FEFDD
:1001D00083ED90E3215080409040E1F700C00000A3
:1001E000999928C0F3B82FEF83ED90E32150804018
:1001F0009040E1F700C00000D3B92FEF83ED90E30A
:10020000215080409040E1F700C00000C3B92FEFBB
:1002100083ED90E3215080409040E1F700C0000062
:10022000E3B82FEF83ED90E3215080409040E1F759
:1002300000C000009A991AC08091040190910501B4
:100240000197A1F48091000190910101883621E08D
:10025000920711F480E090E0865A9F4F809300014E
:100260009093010110920401109205019A9B04C021
:1002700000930401109305019B991AC0809102011B
:10028000909103010197A1F48091000190910101E7
:1002900088392EEF920711F480E090E08A55910999
:1002A00080930001909301011092020110920301CA
:1002B0009B9B04C000930201109303010E945A000B
:0602C00065CFF894FFCFAA
:00000001FF
