:100000000C9446000C9458000C9458000C94580022
:100010000C9458000C9458000C9458000C94580000
:100020000C9458000C9458000C9458000C945800F0
:100030000C9458000C9458000C9458000C945800E0
:100040000C9458000C9458000C9458000C945800D0
:100050000C9458000C9458000C9458000C945800C0
:100060000C9458000C9458000C9458000C945800B0
:100070000C9458000C9458000C9458000C945800A0
:100080000C9458000C9458000C94580011241FBE76
:10009000CFEFD0E1DEBFCDBF21E0A0E0B1E001C0F5
:1000A0001D92A630B207E1F70E94F4000C94E8011B
:1000B0000C9400008091000190910101892B11F4B2
:1000C00089E083B980910001909101018D9711F42D
:1000D00088E083B980910001909101018A359105F2
:1000E00009F413B8809100019091010187389105BE
:1000F00011F484E083B98091000190910101843B67
:10010000910511F486E083B980910001909101017D
:10011000813E910511F482E083B9809100019091B4
:1001200001018E30914011F483E083B98091000188
:10013000909101018B33914011F481E083B980915A
:100140000001909101018836914011F489E083B952
:1001500080910001909101018D9611F481E083B9A5
:100160008091000190910101863A9F4F11F483E044
:1001700083B9809100019091010189379F4F11F45B
:1001800082E083B980910001909101018C349F4FEE
:1001900011F486E083B980910001909101018F31C3
:1001A0009F4F11F484E083B9809100019091010187
:1001B000823F9E4F11F48CE083B9809100019091B1
:1001C0000101853C9E4F11F488E083B980910001C4
:1001D0009091010188399E4F11F489E083B9089507
:1001E00014BA8FEF82B9089581E0809304011092D0
:1001F00005018093020110920301109200011092F8
:1002000001010E94F000C8E0DCE096E0E92E94E0F5
:10021000F92E6701D694C6945601BA94AE0C01E04B
:1002200010E0989947C0C3B92FEF83ED90E32150B8
:1002300080409040E1F700C00000D3B92FEF83ED7C
:1002400090E3215080409040E1F700C00000F3B8F7
:100250002FEF83ED90E3215080409040E1F700C004
:100260000000E3B82FEF83ED90E3215080409040F1
:10027000E1F700C00000D3B82FEF83ED90E32150E9
:1002800080409040E1F700C00000C3B82FEF83ED3D
:1002900090E3215080409040E1F700C00000B3B8E7
:1002A0002FEF83ED90E3215080409040E1F700C0B4
:1002B0000000A3B8999947C0B3B82FEF83ED90E33E
:1002C000215080409040E1F700C00000C3B82FEFFC
:1002D00083ED90E3215080409040E1F700C00000A2
:1002E000D3B82FEF83ED90E3215080409040E1F7A9
:1002F00000C00000E3B82FEF83ED90E32150804071
:100300009040E1F700C00000F3B82FEF83ED90E3D9
:10031000215080409040E1F700C00000D3B92FEF9A
:1003200083ED90E3215080409040E1F700C0000051
:10033000C3B92FEF83ED90E3215080409040E1F767
:1003400000C00000A3B89A9919C08091040190914F
:100350000501019799F4809100019091010188367F
:1003600021E0920711F480E090E08D9680930001E7
:100370009093010110920401109205019A9B04C010
:1003800000930401109305019B9919C0809102010B
:1003900090910301019799F48091000190910101DE
:1003A00088392EEF920711F480E090E08D978093CA
:1003B00000019093010110920201109203019B9B96
:1003C00004C000930201109303010E945A0029CF38
:0403D000F894FFCFCF
:00000001FF
