:100000000C942A000C9412010C943B010C944700B0
:100010000C9447000C9447000C9447000C94E300A8
:100020000C9447000C9447000C9447000C94BA00C1
:100030000C9447000C9447000C9447000C94470024
:100040000C9447000C9447000C9447000C94470014
:100050000C94470011241FBECFE5D8E0DEBFCDBF12
:1000600011E0A0E6B0E0E0E5F3E002C005900D92FB
:10007000A037B107D9F721E0A0E7B1E001C01D9298
:10008000A937B207E1F70E9464010C94A6010C9411
:1000900000008A30910508F065C08AE090E09093F6
:1000A0006100809360002091600030916100A3E6C0
:1000B000B8E00E948301672F782F892F8695779566
:1000C000679586957795679570937601609375012E
:1000D000809160009091610068EE73E00E9492014F
:1000E000FB01EA59FF4F808180937101809160008C
:1000F0009091610064E670E00E949201CB012AE0D9
:1001000030E0B9010E949201FC01EA59FF4F808161
:10011000809372018091600090916100B9010E940A
:100120009201CB01B9010E949201FC01EA59FF4FF3
:100130008081809373018091600090916100B9018A
:100140000E949201FC01EA59FF4F80818093740163
:100150008091600090916100883E934010F410926D
:1001600071010895803127E2920708F498CF8FE05B
:1001700097E295CF2F932FB72F933F938F939F9312
:10018000EF93FF9320917501309176018091770173
:1001900090917801820F931F90937801809377015B
:1001A000E0917701F0917801EF2FF0E0E059FF4FF7
:1001B00080818BBBFF91EF919F918F913F912F9108
:1001C0002FBF2F9118951F921FB61F9211248F9346
:1001D0009F93EF93FF9382B3806F82BBE091700196
:1001E000F0E0EF58FE4F808185BB92B3E091700143
:1001F000F0E0EE59FF4F9F708081892B82BB809188
:1002000070018F5F8093700180917001843010F0D5
:1002100010927001FF91EF919F918F911F901FBEDF
:100220001F9018951F920F920FB60F9211242F93C3
:100230003F934F935F936F937F938F939F93AF936E
:10024000BF93EF93FF938091600090916100C296FD
:100250000E944900FF91EF91BF91AF919F918F91C3
:100260007F916F915F914F913F912F910F900FBEB2
:100270000F901F9018951F920F920FB60F92112496
:100280002F933F934F935F936F937F938F939F939E
:10029000AF93BF93EF93FF938091600090916100C3
:1002A000C2970E944900FF91EF91BF91AF919F913A
:1002B0008F917F916F915F914F913F912F910F900F
:1002C0000FBE0F901F9018958FEF8ABB84BB80EFF5
:1002D00081BB8CEF82BB81E083BF89B7816089BF1E
:1002E0008BE08EBD8CE790E09BBD8ABD89B78061B5
:1002F00089BF8AE085BF80EC8BBF84EF91E00E94CC
:1003000049007894FFCFA29FB001B39FC001A39F83
:10031000700D811D1124911DB29F700D811D11243E
:10032000911D0895AA1BBB1B51E107C0AA1FBB1F4B
:10033000A617B70710F0A61BB70B881F991F5A9571
:10034000A9F780959095BC01CD010895F894FFCF51
:10035000F40170B0D0E0FC60DAF266B6BEE0FEF602
:10036000404143444648494B4C4E4F5152545557D7
:10037000585A5B5C5E5F61626364666768696B6C58
:100380006D6E6F7071727374757676777879797A2D
:100390007B7B7C7C7D7D7E7E7E7F7F7F7F7F7F7F82
:1003A000807F7F7F7F7F7F7F7E7E7E7D7D7C7C7B6D
:1003B0007B7A7979787776767574737271706F6EEF
:1003C0006D6C6B69686766646362615F5E5C5B5AF3
:1003D0005857555452514F4E4C4B4948464443414F
:1003E000403E3D3B3A3836353332302F2D2C2A29CA
:1003F0002726242322201F1E1C1B1A19171615142A
:100400001312110F0E0D0D0C0B0A09080807060533
:1004100005040403030202020101010000000000C0
:1004200000000000000001010102020203030404B5
:10043000050506070808090A0B0C0D0D0E0F111211
:100440001314151617191A1B1C1E1F2022232426ED
:1004500027292A2C2D2F3032333536383A3B3D3E72
:00000001FF
