:100000000C9446000C9450000C9450000C9450003A
:100010000C9450000C9450000C9450000C94500020
:100020000C9450000C9450000C9450000C94500010
:100030000C9450000C9450000C9450000C94500000
:100040000C9450000C9450000C9450000C945000F0
:100050000C9450000C9450000C9450000C945000E0
:100060000C9450000C9450000C9450000C945000D0
:100070000C9450000C9450000C9450000C945000C0
:100080000C9450000C9450000C94500011241FBE8E
:10009000CFEFD0E1DEBFCDBF0E9452000C94C20072
:1000A0000C94000083E287BB18BA84E190E09BBD0A
:1000B0008ABD88E297BD86BD80E18EBD1FBC8FB52D
:1000C000806C8FBD8EB582608EBD40E080E09C016B
:1000D00061E073E0B2990FC0EFE3FCE93197F1F70B
:1000E00000C0000021E0B29B09C098B3962798BBDE
:1000F00004C081E0EFCF2130A9F320E0B3990DC017
:10010000EFE3FCE93197F1F700C0000031E0B39B69
:1001100007C098B3972798BB02C03130B9F330E0DD
:10012000B49915C0EFE3FCE93197F1F700C0000086
:1001300041E0B49B0FC04AB55BB54832510549F068
:100140004AB55BB54F5F5F4F5BBD4ABD02C04130F2
:1001500079F340E0B69912C08FE39CE90197F1F77B
:1001600000C00000B69BC5CF8AB59BB5892B41F076
:100170008AB59BB501979BBD8ABD02C0813091F3C2
:0801800080E0A8CFF894FFCF46
:00000001FF
